:020000040800F2
:10000000C006002029020008670D0008630D0008E3
:10001000650D00081F040008910E00080000000094
:10002000000000000000000000000000DF0D0008DC
:100030002104000800000000690D0008E10D00081F
:10004000430200084302000843020008430200087C
:10005000430200084302000843020008430200086C
:10006000430200084302000843020008430200085C
:10007000430200084302000843020008430200084C
:10008000430200084302000843020008430200083C
:10009000430200084302000843020008430200082C
:1000A000430200084302000843020008430200081C
:1000B000430200084302000843020008430200080C
:1000C00043020008430200084302000843020008FC
:1000D00043020008430200084302000843020008EC
:1000E00043020008430200084302000843020008DC
:1000F00043020008430200084302000843020008CC
:1001000043020008430200084302000843020008BB
:1001100043020008430200084302000843020008AB
:10012000430200084302000843020008430200089B
:10013000430200084302000843020008430200088B
:10014000430200084302000843020008430200087B
:10015000430200084302000843020008430200086B
:10016000430200084302000843020008430200085B
:100170004302000843020008430200080000000098
:10018000430200084302000800F002F800F03CF8C7
:100190000AA090E8000C82448344AAF10107DA45E2
:1001A00001D100F031F8AFF2090EBAE80F0013F0F8
:1001B000010F18BFFB1A43F001031847780D000028
:1001C000980D0000103A24BF78C878C1FAD85207B9
:1001D00024BF30C830C144BF04680C6070470000C1
:1001E0000023002400250026103A28BF78C1FBD840
:1001F000520728BF30C148BF0B6070471FB500F0E1
:100200008BFE1FBD10B510BD00F0CFF81146FFF7F3
:10021000F5FF00F04FFE00F0EDF803B4FFF7F2FF3A
:1002200003BC00F0F5F80000094880470948004782
:10023000FEE7FEE7FEE7FEE7FEE7FEE7FEE7FEE796
:10024000FEE7FEE704480549054A064B70470000F3
:10025000810E000889010008C0000020C0060020AF
:10026000C0020020C002002053EA020C00F06980A6
:100270002DE9F04B4FF00006002B1FBFB3FA83F5BA
:1002800003FA05F424FA05F65E4012BF1643B2FAEB
:1002900082F502FA05F4C5F120051EBF22FA05FC1D
:1002A00044EA0C04203556EA044C4FEA144418BFC3
:1002B000641C4FF000084FF00009904271EB030CF2
:1002C00039D3002919BFB1FA81F701FA07F6B0FA5C
:1002D00080F700FA07F6C7F120071EBF20FA07FCD7
:1002E00046EA0C062037B6FBF4FCA7EB0507103FE7
:1002F00007F01F0BCBF120060CFA0BFB2CFA06F6CD
:1003000044BFB3460026202FA4BF5E464FF0000B2B
:100310005BEA060C08BF4FF0010B19EB0B09ABFBB6
:10032000027C48EB0608C01B06FB02CC0BFB03CC8F
:1003300071EB0C01C1E70B46024641464846BDE859
:10034000F08B13B54FF000004FF00001AFF30080C9
:10035000BDE81C4070474FF0000200B513469446BC
:100360009646203922BFA0E80C50A0E80C50B1F10D
:100370002001BFF4F7AF090728BFA0E80C5048BF21
:100380000CC05DF804EB890028BF40F8042B08BFBF
:10039000704748BF20F8022B11F0804F18BF00F8BB
:1003A000012B7047704770477047754600F02CF876
:1003B000AE4605006946534620F00700854618B052
:1003C00020B5FFF73FFFBDE820404FF000064FF09B
:1003D00000074FF000084FF0000B21F00701AC467A
:1003E000ACE8C009ACE8C009ACE8C009ACE8C00999
:1003F0008D46704710B50446AFF300802046BDE837
:100400001040FFF70ABF000000487047600000205E
:1004100001491820ABBEFEE7260002007047FEE748
:10042000704772B6FEE70000014880687047000020
:100430000000002002488168027811448160704702
:10044000000000200B4810B5016841F40071016004
:10045000016841F480610160016841F480710160CC
:10046000032000F061F80F2000F006F800F024F8F7
:10047000002010BD003C024070B50D4D04464FF405
:100480007A712878B1FBF0F00A490968B1FBF0F005
:1004900000F053FC48B9102C07D200222146501E10
:1004A00000F022F800206C6070BD012070BD0000DB
:1004B000000000200C0000200A4808B5016841F443
:1004C00080410160006800F4804000900548001FF2
:1004D000016841F080510160006800F08050009098
:1004E00008BD000044380240F0B40E4B1B680C46B7
:1004F000C3F30223C3F10705042D00D90425191DF8
:10050000072901D2002300E0DB1E012606FA05F1CF
:10051000491E214099409E40761E16403143F0BC52
:1005200000F0B7BC0CED00E0064900F007020868D7
:100530004FF6FF03184040EA0220034A10430860C8
:10054000704700000CED00E00000FA052DE9F843CB
:10055000054600684FF00109C1074FF0000601D1C0
:10056000400727D5DFF80C81C8F86860FFF75CFF0B
:100570000746414C05E000BFFFF756FFC01B0228AD
:1005800057D820680001F7D468688101287A41EAC9
:100590000070394984310860C8F86890FFF744FF5B
:1005A000074604E0FFF740FFC01B022841D820683F
:1005B0000001F7D52878800752D52F4840300168D0
:1005C00041F08051016000682C4C00F08050009098
:1005D000206840F480702060FFF726FF074604E0A3
:1005E000FFF722FFC01B022823D82068C005F7D5DB
:1005F000214C7034206810F4407020D0A98901F497
:10060000407181421BD020681D4920F44070C1F820
:1006100000900E6020602068C00710D0FFF704FF34
:10062000064641F2883707E0FFF7FEFE801BB8421E
:1006300002D90320BDE8F88320688007F4D5E96873
:100640000D48C1F301220830032A0BD0016821F4C0
:10065000F81101602068A989C1F30B0108432060EB
:100660000020E7E70268074B22F4F81219400A431A
:100670000260EFE70000474200380240007000408F
:10068000400E4742FFFCFF0F2DE9F0470E460500E4
:1006900065D0DFF81481D8F80000F7B200F0070049
:1006A000B04207D288F80070D8F8000000F00700C8
:1006B000B04254D128683D4C810712D5400703D57C
:1006C000206840F4E05020602878000703D52068B7
:1006D00040F4604020602068A96820F0F0000843E2
:1006E00020602878C0072DD0304968680839012873
:1006F00012D0022813D0032811D0096889070029D5
:100700002DDA216821F0030101432160FFF78CFEFF
:10071000814641F2883A0EE009688903EFE70968EB
:100720008901ECE7FFF780FEA0EB0901514502D9F2
:100730000320BDE8F0872068696800F00C00B0EB8A
:10074000810FEFD1D8F80010404601F00701B14207
:1007500007D90770006800F00700B04201D00120FF
:10076000E7E72878400705D52068E96820F4E050DD
:10077000084320602878000706D52068296920F4FE
:10078000604040EAC100206000F072F82168084A29
:10079000C1F30311515CC84006490860064800686F
:1007A000FFF76AFE0020C4E7003C02400838024020
:1007B000220F00080C0000200400002030B50F219B
:1007C00001602A490A6853034FF0000202D54FF432
:1007D000A02304E00B68DB0303D54FF480334360B0
:1007E00000E042600B68DC074FF0010301D0C360FA
:1007F00000E0C2600C68C4F3C40404611B4C703494
:1008000025686D0702D50524846005E02468E407A7
:1008100001D0836000E08260144C74342468E407E3
:1008200001D0436100E042610968C90102D502219B
:10083000816100E083610D49091D0A6802F48002AC
:10084000C2610A6802F03F0202620A68C2F38812BB
:1008500042620A6802F4403202F58032D20B8262B0
:100860000968C1F30361C16230BD00000038024075
:10087000154810B5006810F00C02144813D0144944
:10088000042A0FD0082A0ED10F4C241F2268236897
:1008900002F03F025B0207D52068C0F38810A0FB7E
:1008A000010106E0084610BD2168C1F38811A1FBD3
:1008B00000010023FFF7D8FC2168C1F30141491C66
:1008C0004900B0FBF1F010BD083802400024F400EC
:1008D00040787D012DE9F84F04006ED02078DFF8D4
:1008E0004C93C007A9F104054AD009F1040001683E
:1008F000C1F38101012908D00068C0F381000228FA
:100900000AD1D9F80000400206D52868800337D5FF
:1009100060680028E1D033E06068B0F5803F10D017
:10092000B0F5A02F286810D020F480302860286807
:1009300020F4802028606068A8B1FFF775FD0646A6
:100940000DE0286840F48030F4E740F4802028600F
:10095000F7E700BFFFF768FD801B642873D828689D
:100960008003F7D50CE0FFF75FFD064605E000BF0A
:10097000FFF75AFD801B6428F0D828688003F7D45D
:100980002078DFF8AC8280074FF0000A3ED5A748F8
:10099000001D016811F00C0F08D00068C0F3810041
:1009A00002280BD1D9F80000400207D4286880073C
:1009B00016D5E068012800D112E033E1E068B8B153
:1009C0000120C8F80000FFF72FFD064605E000BF34
:1009D000FFF72AFD801B0228C0D828688007F7D5BA
:1009E0002868216920F0F80040EAC10028600DE085
:1009F000C8F800A0FFF718FD064604E0FFF714FD55
:100A0000801B02281FD828688007F7D420780007A9
:100A100022D5864F87486169703771B10121016025
:100A2000FFF702FD064604E0FFF7FEFC801B0228EC
:100A300009D838688007F7D50EE0C0F800A0FFF7A6
:100A4000F3FC064605E082E0FFF7EEFC801B02287F
:100A50007DD838688007F7D42078400768D5DFF85C
:100A6000CCB100270BF13C0BDBF80000C0000BD42D
:100A7000DBF8001041F08051CBF80010DBF80000EB
:100A8000012700F0805000906B4E3068C00510D4F4
:100A9000306840F480703060FFF7C6FC009005E0DD
:100AA000FFF7C2FC0099401A022850D83068C005F0
:100AB000F6D55E4EA0686C3601280FD00528306848
:100AC00010D020F001003060306820F00400306069
:100AD000A068B8B1FFF7A8FC00900FE0306840F0C4
:100AE0000100F4E740F004003060F7E7FFF79CFCFA
:100AF0000099411A41F28830814266D830688007F7
:100B0000F4D50EE0FFF790FC009007E0FFF78CFCB7
:100B10000099411A41F28830814256D830688007E6
:100B2000F4D42FB1DBF8001021F08051CBF8001085
:100B3000A069C8B33D49091D0968C1F381010229B3
:100B40004AD00228504607D0C8F8600000E03CE0D8
:100B5000FFF76AFC04463BE04746C8F86000FFF731
:100B600063FC064605E000BFFFF75EFC801B022821
:100B70002BD828688001F7D4D4E907010843A16A7B
:100B80002E4A490802EB0141626A41EA8211084398
:100B900094F82C1040EA0161C9F800100120386671
:100BA000FFF742FC044606E03EE000BFFFF73CFCD6
:100BB000001B022809D828688001F7D534E000BF5F
:100BC000FFF732FC001B022802D90320BDE8F88F92
:100BD00028688001F4D427E00128F7D0D9F8000074
:100BE000E26900F4800191421CD1226A00F03F01C9
:100BF000914217D147F6C071626A0140B1EB821F82
:100C000010D1A26A4FF0FF3300F4403103EB5202DF
:100C1000B1EB024F06D194F82C1000F07060B0EBED
:100C2000016F01D00120D1E70020CFE70438024056
:100C300000004742800E4742007000400000FFFF66
:100C400010B5040002D0607F10B106E0012010BD95
:100C500000202077204600F039F8022060772168D4
:100C6000CA204862216853204862204600F07EF87E
:100C700030BB20688168144A11408160216888680F
:100C800062681043D4E904231A4310438860216842
:100C9000E068086120680169228941EA0241016136
:100CA000204600F087F858B921680A6C22F48022A7
:100CB0000A6421680A6CA3691A430A6401216177F6
:100CC0002268FF21516210BDBFFF8FFF1FB50021B9
:100CD00000910191029103910068084988420CD16A
:100CE00002200090C00103906846FFF72FFC08B176
:100CF000FFF797FB0249012008601FBD0028004054
:100D00003C0E474270B504460068C16821F0A0015E
:100D1000C160FFF789FB05464FF47A7607E000BF14
:100D2000FFF782FB401BB04201D9032070BD206851
:100D3000C0688006F4D5002070BD10B5401EB0F12B
:100D4000807F01D3012010BD4FF0E02460610F21AE
:100D5000601700F09EF80020A061072020610020AD
:100D600010BDFEE7FEE7FEE7704700002DE9F04109
:100D7000044600680025C168490618D4C16841F0DE
:100D80008001C160FFF750FB06464FF47A780427D4
:100D900007E000BFFFF748FB801B404501D967779C
:100DA00001252068C068400601D4002DF2D02846F5
:100DB000BDE8F08170B5044600680025C16821F0E7
:100DC0008001C16020688068800606D42046FFF755
:100DD00099FF10B1042060770125284670BD704747
:100DE000FFF728BB30B593B030216846FFF7B3FA60
:100DF00014210CA8FFF7AFFA1F480025016841F045
:100E000080510160006800F0805011901B4801681B
:100E100041F4804101600068022400F48040119098
:100E2000052000904FF48030019001200290800551
:100E3000CDE9064010200890C020CDE90904042027
:100E40000B906846FFF746FD08B172B6FEE70CA9A5
:100E50000F2081E831004FF4C0500F904FF4A050A4
:100E6000109004210CA8FFF70FFC002801D072B6E7
:100E7000FEE713B030BD0000403802400070004073
:100E80000248016841F470010160704788ED00E09C
:100E9000FEE70907090E002804DB00F1E02080F8D6
:100EA0000014704700F00F0000F1E02080F8141DDE
:100EB0007047000008B5FFF7C5FAFFF793FF134826
:100EC0000021026842F004020260026802F004029B
:100ED0000092026842F08002026000680C4A00F052
:100EE000800000900B48C0E900217F228260FF2231
:100EF000C0E9032141618161FFF7A2FE08B172B62A
:100F0000FEE704482030FFF759FCFAE7303802408A
:100F100000280040100000204FF04070E1EE100A61
:100F200070470000000000000000010203040607F3
:100F300008090000540F0008000000201000000005
:100F4000C4010008640F000810000020B006000073
:100F5000E001000801000000100000000000000097
:040F60000024F40075
:040000050800018965
:00000001FF
