:020000040800F2
:100000000807002029020008F31000083910000832
:10001000F11000081F0400089D12000800000000F5
:10002000000000000000000000000000F7100008C1
:100030002104000800000000F5100008F910000875
:10004000430200084302000843020008430200087C
:10005000430200084302000843020008430200086C
:10006000430200084302000843020008430200085C
:10007000430200084302000843020008430200084C
:10008000430200084302000843020008430200083C
:10009000430200084302000843020008430200082C
:1000A000430200084302000843020008430200081C
:1000B000430200084302000843020008430200080C
:1000C00043020008430200084302000843020008FC
:1000D00043020008430200084302000843020008EC
:1000E00043020008430200084302000843020008DC
:1000F00043020008430200084302000843020008CC
:1001000043020008430200084302000843020008BB
:10011000430200084302000889110008BD110008CD
:10012000430200084302000843020008430200089B
:10013000430200084302000843020008430200088B
:10014000430200084302000843020008430200087B
:10015000430200084302000843020008430200086B
:10016000430200084302000843020008430200085B
:100170004302000843020008430200080000000098
:10018000430200084302000800F002F800F03CF8C7
:100190000AA090E8000C82448344AAF10107DA45E2
:1001A00001D100F031F8AFF2090EBAE80F0013F0F8
:1001B000010F18BFFB1A43F001031847A0110000FC
:1001C000C0110000103A24BF78C878C1FAD852078D
:1001D00024BF30C830C144BF04680C6070470000C1
:1001E0000023002400250026103A28BF78C1FBD840
:1001F000520728BF30C148BF0B6070471FB501F0E0
:100200009FF81FBD10B510BD00F0CFF81146FFF7E5
:10021000F5FF01F055F800F0EDF803B4FFF7F2FF39
:1002200003BC00F0F5F80000094880470948004782
:10023000FEE7FEE7FEE7FEE7FEE7FEE7FEE7FEE796
:10024000FEE7FEE704480549054A064B70470000F3
:100250007911000889010008080100200807002022
:10026000080300200803002053EA020C00F0698014
:100270002DE9F04B4FF00006002B1FBFB3FA83F5BA
:1002800003FA05F424FA05F65E4012BF1643B2FAEB
:1002900082F502FA05F4C5F120051EBF22FA05FC1D
:1002A00044EA0C04203556EA044C4FEA144418BFC3
:1002B000641C4FF000084FF00009904271EB030CF2
:1002C00039D3002919BFB1FA81F701FA07F6B0FA5C
:1002D00080F700FA07F6C7F120071EBF20FA07FCD7
:1002E00046EA0C062037B6FBF4FCA7EB0507103FE7
:1002F00007F01F0BCBF120060CFA0BFB2CFA06F6CD
:1003000044BFB3460026202FA4BF5E464FF0000B2B
:100310005BEA060C08BF4FF0010B19EB0B09ABFBB6
:10032000027C48EB0608C01B06FB02CC0BFB03CC8F
:1003300071EB0C01C1E70B46024641464846BDE859
:10034000F08B13B54FF000004FF00001AFF30080C9
:10035000BDE81C4070474FF0000200B513469446BC
:100360009646203922BFA0E80C50A0E80C50B1F10D
:100370002001BFF4F7AF090728BFA0E80C5048BF21
:100380000CC05DF804EB890028BF40F8042B08BFBF
:10039000704748BF20F8022B11F0804F18BF00F8BB
:1003A000012B7047704770477047754600F02CF876
:1003B000AE4605006946534620F00700854618B052
:1003C00020B5FFF73FFFBDE820404FF000064FF09B
:1003D00000074FF000084FF0000B21F00701AC467A
:1003E000ACE8C009ACE8C009ACE8C009ACE8C00999
:1003F0008D46704710B50446AFF300802046BDE837
:100400001040FFF70ABF000000487047A800002016
:1004100001491820ABBEFEE7260002007047FEE748
:10042000704700002DE9F84FDFF8BCA1002201253C
:1004300003264FF00F090AF1040BAAF1040E00BFC6
:100440000B6805FA02F42340A34270D10F7907F03C
:100450000307012F01D0022F16D187684FEA420807
:1004600006FA08FC27EA0C07D1F80CC00CFA08FCC5
:100470004CEA070CC0F808C04768A7430C79C4F3DE
:10048000001494403C4344600C79E443A4070AD030
:10049000C4684FEA420C06FA0CF7BC438F6807FAAF
:1004A0000CF72743C7600C7904F00304022C12D127
:1004B000D40800EB840CDCF820405707FF0E09FA43
:1004C00007F824EA0804D1F8108008FA07F848EA87
:1004D0000408CCF8208004684FEA420C06FA0CF7B6
:1004E000BC430F7907F0030707FA0CF727430760AF
:1004F0004C6814F4403F70D03C4C276847F4804768
:100500002760246822F0030704F480440094384CE8
:1005100007EB040CDCF8084897074FEA177809FA4C
:1005200008F7BC43334FB84202D1002724E054E01F
:10053000314FB84201D101271EE0304FB84201D1FE
:10054000022719E02E4FB84201D1032714E02D4FA6
:10055000B84201D104270FE02B4FB84201D1052743
:100560000AE02A4FB84201D1062705E0284FB842D9
:1005700001D1072700E0082707FA08F72743CCF83E
:100580000878DAF800405746D1F804C09C435FEA87
:10059000CC2C00D51C433C60DBF800405F46D1F812
:1005A00004C09C435FEA8C2C00D51C433C60DEF801
:1005B00000407746D1F804C09C435FEA8C3C00D5EC
:1005C0001C433C60084F083F3C68D1F804C09C4382
:1005D0005FEACC3C00D51C433C60521C102AFFF45F
:1005E0002FAFBDE8F88F0000083C014044380240BE
:1005F00000300140000002400004024000080240B8
:10060000000C02400010024000140240001802409A
:10061000001C0240426921EA02030A4043EA024107
:10062000816170470AB1816170470904FBE70000EE
:100630000148806870470000080000200248816877
:100640000278114481607047080000200B4810B503
:10065000016841F400710160016841F4806101604A
:10066000016841F480710160032000F06FF80F20F1
:1006700000F006F800F024F8002010BD003C024015
:1006800070B50D4D04464FF47A712878B1FBF0F047
:100690000A490968B1FBF0F000F0ECFA48B9102CF7
:1006A00007D200222146501E00F030F800206C6076
:1006B00070BD012070BD0000080000201400002063
:1006C0000A4808B5016841F480410160006800F4FF
:1006D000804000900548001F016841F08051016092
:1006E000006800F08050009008BD000044380240CF
:1006F000002809DB00F01F02012191404009800021
:1007000000F1E020C0F8001170470000F0B40E4B7B
:100710001B680C46C3F30223C3F10705042D00D95F
:100720000425191D072901D2002300E0DB1E012644
:1007300006FA05F1491E214099409E40761E16405A
:100740003143F0BC00F0ABBD0CED00E0064900F019
:10075000070208684FF6FF03184040EA0220034AE8
:1007600010430860704700000CED00E00000FA053F
:100770002DE9F0470E46050065D0DFF81481D8F862
:100780000000F7B200F00700B04207D288F800700E
:10079000D8F8000000F00700B04254D128683D4C62
:1007A000810712D5400703D5206840F4E05020604F
:1007B0002878000703D5206840F460402060206856
:1007C000A96820F0F000084320602878C0072DD0E9
:1007D000304968680839012812D0022813D003284C
:1007E00011D00968890700292DDA216821F0030159
:1007F00001432160FFF71CFF814641F2883A0EE079
:1008000009688903EFE709688901ECE7FFF710FF42
:10081000A0EB0901514502D90320BDE8F08720680B
:10082000696800F00C00B0EB810FEFD1D8F8001030
:10083000404601F00701B14207D90770006800F097
:100840000700B04201D00120E7E72878400705D52E
:100850002068E96820F4E050084320602878000709
:1008600006D52068296920F4604040EAC100206074
:1008700000F018F82168084AC1F30311515CC84020
:100880000649086006480068FFF7FAFE0020C4E742
:10089000003C0240083802404A13000814000020BF
:1008A0000C000020154810B5006810F00C02144828
:1008B00013D01449042A0FD0082A0ED10F4C241F3C
:1008C0002268236802F03F025B0207D52068C0F36C
:1008D0008810A0FB010106E0084610BD2168C1F3A5
:1008E0008811A1FB00010023FFF7BEFC2168C1F3C2
:1008F0000141491C4900B0FBF1F010BD083802402D
:100900000024F40040787D012DE9F84F04006ED0FA
:100910002078DFF84C93C007A9F104054AD009F10B
:1009200004000168C1F38101012908D00068C0F307
:10093000810002280AD1D9F80000400206D52868B3
:10094000800337D560680028E1D033E06068B0F5F7
:10095000803F10D0B0F5A02F286810D020F4803050
:100960002860286820F4802028606068A8B1FFF71C
:100970005FFE06460DE0286840F48030F4E740F45E
:1009800080202860F7E700BFFFF752FE801B642835
:1009900073D828688003F7D50CE0FFF749FE0646B8
:1009A00005E000BFFFF744FE801B6428F0D82868EC
:1009B0008003F7D42078DFF8AC8280074FF0000A7C
:1009C0003ED5A748001D016811F00C0F08D0006843
:1009D000C0F3810002280BD1D9F80000400207D4EF
:1009E0002868800716D5E068012800D112E033E1BD
:1009F000E068B8B10120C8F80000FFF719FE06460C
:100A000005E000BFFFF714FE801B0228C0D828684D
:100A10008007F7D52868216920F0F80040EAC10076
:100A200028600DE0C8F800A0FFF702FE064604E0CB
:100A3000FFF7FEFD801B02281FD828688007F7D427
:100A40002078000722D5864F87486169703771B1D9
:100A500001210160FFF7ECFD064604E0FFF7E8FD29
:100A6000801B022809D838688007F7D50EE0C0F847
:100A700000A0FFF7DDFD064605E082E0FFF7D8FDA8
:100A8000801B02287DD838688007F7D4207840077B
:100A900068D5DFF8CCB100270BF13C0BDBF8000088
:100AA000C0000BD4DBF8001041F08051CBF80010EF
:100AB000DBF80000012700F0805000906B4E30689A
:100AC000C00510D4306840F480703060FFF7B0FD8E
:100AD000009005E0FFF7ACFD0099401A022850D8BD
:100AE0003068C005F6D55E4EA0686C3601280FD080
:100AF0000528306810D020F001003060306820F008
:100B000004003060A068B8B1FFF792FD00900FE0DC
:100B1000306840F00100F4E740F004003060F7E78F
:100B2000FFF786FD0099411A41F28830814266D86C
:100B300030688007F4D50EE0FFF77AFD009007E0FB
:100B4000FFF776FD0099411A41F28830814256D86C
:100B500030688007F4D42FB1DBF8001021F0805109
:100B6000CBF80010A069C8B33D49091D0968C1F35D
:100B7000810102294AD00228504607D0C8F86000F7
:100B800000E03CE0FFF754FD04463BE04746C8F870
:100B90006000FFF74DFD064605E000BFFFF748FD8A
:100BA000801B02282BD828688001F7D4D4E90701DC
:100BB0000843A16A2E4A490802EB0141626A41EAF0
:100BC0008211084394F82C1040EA0161C9F8001022
:100BD00001203866FFF72CFD044606E03EE000BF2A
:100BE000FFF726FD001B022809D828688001F7D5E9
:100BF00034E000BFFFF71CFD001B022802D90320D0
:100C0000BDE8F88F28688001F4D427E00128F7D0E8
:100C1000D9F80000E26900F4800191421CD1226AF7
:100C200000F03F01914217D147F6C071626A01405E
:100C3000B1EB821F10D1A26A4FF0FF3300F44031B4
:100C400003EB5202B1EB024F06D194F82C1000F0E6
:100C50007060B0EB016F01D00120D1E70020CFE739
:100C60000438024000004742800E474200700040B6
:100C70000000FFFF10B5401EB0F1807F01D30120BE
:100C800010BD4FF0E02460610F21601700F007FBFA
:100C90000020A06107202061002010BD7047704730
:100CA00070B590F83C20012A32D0012480F83C40F5
:100CB000022280F83D2003685A689D6822F0700681
:100CC0000A6832435A60134B02689A4214D0B2F158
:100CD000804F11D0104B9A420ED0104B9A420BD03D
:100CE0000F4B9A4208D00F4B9A4205D00E4B9A42B6
:100CF00002D00E4B9A4204D1496825F08003194373
:100D0000916080F83D40002180F83C10084670BD9D
:100D1000022070BD000001400004004000080040B7
:100D2000000C004000040140004001400018004059
:100D300010B5040003D094F83D0010B107E0012085
:100D400010BD002084F83C00204600F01FF802206F
:100D500084F83D00211D206800F03CFA012084F851
:100D6000460084F83E0084F83F0084F8400084F890
:100D7000410084F8420084F8430084F8440084F879
:100D8000450084F83D00002010BD000008B5154A5C
:100D90000168154891420ED1016841F010010160CF
:100DA0000068002200F01000009011463620FFF786
:100DB000ADFC362010E00D4A914211D1016841F09E
:100DC000200101600068002200F020000090114620
:100DD0003720FFF79BFC3720BDE80840FFF788BCB1
:100DE00008BD0000001000404038024000140040E0
:100DF00090F83D10012901D001207047022180F8B0
:100E00003D100168CA6842F00102CA6000681149D9
:100E1000884214D0B0F1804F11D00F4988420ED0D3
:100E20000E4988420BD00E49884208D00D498842AD
:100E300005D00D49884202D00C49884204D181680E
:100E400001F00701062903D0016841F001010160AA
:100E500000207047000001400004004000080040EE
:100E6000000C004000040140004001400018004018
:100E7000704770B50446006801694FF00005C9432A
:100E8000890715D4C168C943890711D4E91E0161D6
:100E900001202077206880698007204602D0FFF774
:100EA000E7FF04E000F098F8204600F0C2F825774C
:100EB00020680169C943490717D4C168C943490774
:100EC00013D46FF00401016102202077206880694B
:100ED00010F4407F204602D0FFF7CAFF04E000F084
:100EE0007BF8204600F0A5F8257720680169C94302
:100EF000090716D4C168C943090712D46FF0080165
:100F00000161042020772068C0698007204602D054
:100F1000FFF7AEFF04E000F05FF8204600F089F82C
:100F2000257720680169C943C90617D4C168C94338
:100F3000C90613D46FF010010161082020772068E2
:100F4000C06910F4407F204602D0FFF791FF04E013
:100F500000F042F8204600F06CF82577206801691F
:100F6000C943C90708D1C168C943C90704D1891E4B
:100F70000161204600F05EF820680169C943090656
:100F800009D4C168C943090605D46FF08001016125
:100F90002046FFF783FE20680169C943490609D44A
:100FA000C168C943490605D46FF04001016120467C
:100FB00000F041F820680169C94389060BD4C16873
:100FC000C943890607D46FF0200101612046BDE8BE
:100FD0007040FFF764BE70BD704770B50D460400E9
:100FE00003D094F83D0010B107E0012070BD00204F
:100FF00084F83C00204600F01BF8022084F83D00F5
:10100000211D206800F0E6F82068016821F0080141
:10101000016054F8460B016829430160012004F87F
:101020001F09E0752076E0762077A075002070BD5E
:101030007047704770477047FEE7000030B587B0D3
:1010400014216846FFF787F91248016841F0010151
:101050000160016801F001010591016841F00201A0
:10106000016000680C4D00F002004FF40074059020
:10107000002221462846FFF7D5FA012002210094DC
:10108000CDE90101039169462846FFF7CBF907B086
:1010900030BD000030380240000402401CB500247E
:1010A000124800941049019401604FF6FF11C0E905
:1010B0000114F9218461C160FFF73AFE08B172B6EC
:1010C000FEE708210948FFF788FF08B172B6FEE77E
:1010D0000094694605480194FFF7E2FD002801D01D
:1010E00072B6FEE71CBD0000001400406000002046
:1010F000FEE7FEE770477047FFF7A0BA10B592B061
:1011000030216846FFF727F914210CA8FFF723F9CF
:1011100017480024016841F080510160006800F028
:10112000805011901348016841F4804101600068CB
:10113000069400F48040119002200090012003905A
:10114000102004906846FFF7DFFB08B172B6FEE797
:101150000F20CDE90C040E940F9400210CA81094DC
:10116000FFF706FB002801D072B6FEE712B010BDF3
:1011700040380240007000400248016841F47001AC
:101180000160704788ED00E010B50948FFF771FE77
:1011900008490868401C0860032807DD0020086033
:1011A00005480068016841F00101016010BD0000C0
:1011B000180000200400002060000020034801689F
:1011C000491C01600248FFF754BE000000000020E7
:1011D00060000020F0B50268254C264D264E274FB2
:1011E000274B4FF0804CA04209D0604507D0A84261
:1011F00005D0B04203D0B84201D0984204D122F0C9
:10120000700E4A6842EA0E02A0421BD0604519D017
:10121000A84217D0B04215D0B84213D0984211D08E
:10122000184DA8420ED0184DA8420BD0174DA84219
:1012300008D0174DA84205D0164DA84202D0164D31
:10124000A84203D122F44075CA682A434D6922F0AE
:1012500080022A4302608A68C2620A688262A042EF
:1012600001D0984201D10969016301214161F0BDBA
:10127000000001400004004000080040000C004055
:10128000000401400040014000440140004801408A
:1012900000180040001C004000200040FEE7090745
:1012A000090E002804DB00F1E02080F800147047EC
:1012B00000F00F0000F1E02080F8141D70470000DE
:1012C0001CB5FFF7C3F9FFF719FFFFF7B7FE0024BE
:1012D000184800941649019401604FF6FF11C0E9C7
:1012E0000114F9218461C160FFF722FD08B172B6D3
:1012F000FEE7009469460F480194FFF7D1FC08B15E
:1013000072B6FEE7FFF7CAFE0A48FFF771FD09480B
:101310004830FFF76DFD084D084F4FF40076286800
:101320000128FCD131463846FFF774F92C60F6E706
:1013300000100040180000200000002000040240BF
:101340004FF04070E1EE100A70470000000000000E
:101350000000010203040607080900007C130008CE
:101360000000002018000000C401000894130008C9
:1013700018000020F0060000E00100080000000056
:10138000000000000100000010000000000000004C
:041390000024F40041
:040000050800018965
:00000001FF
