:020000040800F2
:1000000078060020290200086D0A0008690A000825
:100010006B0A00081F0400081D0B00080000000008
:10002000000000000000000000000000710A00084D
:1000300021040008000000006F0A0008730A00088D
:10004000430200084302000843020008430200087C
:10005000430200084302000843020008430200086C
:10006000430200084302000843020008430200085C
:10007000430200084302000843020008430200084C
:10008000430200084302000843020008430200083C
:10009000430200084302000843020008430200082C
:1000A000430200084302000843020008430200081C
:1000B000430200084302000843020008430200080C
:1000C00043020008430200084302000843020008FC
:1000D00043020008430200084302000843020008EC
:1000E00043020008430200084302000843020008DC
:1000F00043020008430200084302000843020008CC
:1001000043020008430200084302000843020008BB
:1001100043020008430200084302000843020008AB
:10012000430200084302000843020008430200089B
:10013000430200084302000843020008430200088B
:10014000430200084302000843020008430200087B
:10015000430200084302000843020008430200086B
:10016000430200084302000843020008430200085B
:100170004302000843020008430200080000000098
:10018000430200084302000800F002F800F03CF8C7
:100190000AA090E8000C82448344AAF10107DA45E2
:1001A00001D100F031F8AFF2090EBAE80F0013F0F8
:1001B000010F18BFFB1A43F001031847D4090000D0
:1001C000F4090000103A24BF78C878C1FAD8520761
:1001D00024BF30C830C144BF04680C6070470000C1
:1001E0000023002400250026103A28BF78C1FBD840
:1001F000520728BF30C148BF0B6070471FB500F0E1
:10020000B9FC1FBD10B510BD00F0CFF81146FFF7C7
:10021000F5FF00F095FC00F0EDF803B4FFF7F2FFF6
:1002200003BC00F0F5F80000094880470948004782
:10023000FEE7FEE7FEE7FEE7FEE7FEE7FEE7FEE796
:10024000FEE7FEE704480549054A064B70470000F3
:100250000D0B0008890100087800002078060020B6
:10026000780200207802002053EA020C00F0698036
:100270002DE9F04B4FF00006002B1FBFB3FA83F5BA
:1002800003FA05F424FA05F65E4012BF1643B2FAEB
:1002900082F502FA05F4C5F120051EBF22FA05FC1D
:1002A00044EA0C04203556EA044C4FEA144418BFC3
:1002B000641C4FF000084FF00009904271EB030CF2
:1002C00039D3002919BFB1FA81F701FA07F6B0FA5C
:1002D00080F700FA07F6C7F120071EBF20FA07FCD7
:1002E00046EA0C062037B6FBF4FCA7EB0507103FE7
:1002F00007F01F0BCBF120060CFA0BFB2CFA06F6CD
:1003000044BFB3460026202FA4BF5E464FF0000B2B
:100310005BEA060C08BF4FF0010B19EB0B09ABFBB6
:10032000027C48EB0608C01B06FB02CC0BFB03CC8F
:1003300071EB0C01C1E70B46024641464846BDE859
:10034000F08B13B54FF000004FF00001AFF30080C9
:10035000BDE81C4070474FF0000200B513469446BC
:100360009646203922BFA0E80C50A0E80C50B1F10D
:100370002001BFF4F7AF090728BFA0E80C5048BF21
:100380000CC05DF804EB890028BF40F8042B08BFBF
:10039000704748BF20F8022B11F0804F18BF00F8BB
:1003A000012B7047704770477047754600F02CF876
:1003B000AE4605006946534620F00700854618B052
:1003C00020B5FFF73FFFBDE820404FF000064FF09B
:1003D00000074FF000084FF0000B21F00701AC467A
:1003E000ACE8C009ACE8C009ACE8C009ACE8C00999
:1003F0008D46704710B50446AFF300802046BDE837
:100400001040FFF70ABF00000048704718000020A6
:1004100001491820ABBEFEE7260002007047FEE748
:100420007047000001488068704700000800002005
:1004300002488168027811448160704708000020FA
:100440000B4810B5016841F400710160016841F486
:1004500080610160016841F480710160032000F057
:1004600061F80F2000F006F800F024F8002010BD1D
:10047000003C024070B50D4D04464FF47A71287867
:10048000B1FBF0F00A490968B1FBF0F000F0D8FACE
:1004900048B9102C07D200222146501E00F022F845
:1004A00000206C6070BD012070BD000008000020BD
:1004B000140000200A4808B5016841F48041016039
:1004C000006800F4804000900548001F016841F07A
:1004D00080510160006800F08050009008BD00006D
:1004E00044380240F0B40E4B1B680C46C3F30223A1
:1004F000C3F10705042D00D90425191D072901D2D0
:10050000002300E0DB1E012606FA05F1491E21400A
:1005100099409E40761E16403143F0BC00F0FFBA71
:100520000CED00E0064900F0070208684FF6FF03F3
:10053000184040EA0220034A104308607047000058
:100540000CED00E00000FA052DE9F0470E4605002D
:1005500065D0DFF81481D8F80000F7B200F007008A
:10056000B04207D288F80070D8F8000000F0070009
:10057000B04254D128683D4C810712D5400703D5BD
:10058000206840F4E05020602878000703D52068F8
:1005900040F4604020602068A96820F0F000084323
:1005A00020602878C0072DD03049686808390128B4
:1005B00012D0022813D0032811D009688907002916
:1005C0002DDA216821F0030101432160FFF72AFFA2
:1005D000814641F2883A0EE009688903EFE709682D
:1005E0008901ECE7FFF71EFFA0EB0901514502D995
:1005F0000320BDE8F0872068696800F00C00B0EBCC
:10060000810FEFD1D8F80010404601F00701B14248
:1006100007D90770006800F00700B04201D0012040
:10062000E7E72878400705D52068E96820F4E0501E
:10063000084320602878000706D52068296920F43F
:10064000604040EAC100206000F01EF82168084ABE
:10065000C1F30311515CC8400649086006480068B0
:10066000FFF708FF0020C4E7003C024008380240C2
:100670007E0B0008140000200C00002001480068D8
:100680007047000014000020104810B5006810F0FA
:100690000C010F4818D0042916D0082914D10B4C8E
:1006A000241F216801F03F02216821680023C1F363
:1006B0008811A1FB0001FFF7D7FD2168C1F30141BB
:1006C000491C4900B0FBF1F010BD000008380240A1
:1006D0000024F4002DE9F84F04006ED02078DFF8F4
:1006E0004C93C007A9F104054AD009F10400016840
:1006F000C1F38101012908D00068C0F381000228FC
:100700000AD1D9F80000400206D52868800337D501
:1007100060680028E1D033E06068B0F5803F10D019
:10072000B0F5A02F286810D020F480302860286809
:1007300020F4802028606068A8B1FFF773FE0646A9
:100740000DE0286840F48030F4E740F48020286011
:10075000F7E700BFFFF766FE801B642873D82868A0
:100760008003F7D50CE0FFF75DFE064605E000BF0D
:10077000FFF758FE801B6428F0D828688003F7D460
:100780002078DFF8AC8280074FF0000A3ED5A748FA
:10079000001D016811F00C0F08D00068C0F3810043
:1007A00002280BD1D9F80000400207D4286880073E
:1007B00016D5E068012800D112E033E1E068B8B155
:1007C0000120C8F80000FFF72DFE064605E000BF37
:1007D000FFF728FE801B0228C0D828688007F7D5BD
:1007E0002868216920F0F80040EAC10028600DE087
:1007F000C8F800A0FFF716FE064604E0FFF712FE59
:10080000801B02281FD828688007F7D420780007AB
:1008100022D5864F87486169703771B10121016027
:10082000FFF700FE064604E0FFF7FCFD801B0228F0
:1008300009D838688007F7D50EE0C0F800A0FFF7A8
:10084000F1FD064605E082E0FFF7ECFD801B022883
:100850007DD838688007F7D42078400768D5DFF85E
:10086000CCB100270BF13C0BDBF80000C0000BD42F
:10087000DBF8001041F08051CBF80010DBF80000ED
:10088000012700F0805000906B4E3068C00510D4F6
:10089000306840F480703060FFF7C4FD009005E0E0
:1008A000FFF7C0FD0099401A022850D83068C005F3
:1008B000F6D55E4EA0686C3601280FD0052830684A
:1008C00010D020F001003060306820F0040030606B
:1008D000A068B8B1FFF7A6FD00900FE0306840F0C7
:1008E0000100F4E740F004003060F7E7FFF79AFDFD
:1008F0000099411A41F28830814266D830688007F9
:10090000F4D50EE0FFF78EFD009007E0FFF78AFDBB
:100910000099411A41F28830814256D830688007E8
:10092000F4D42FB1DBF8001021F08051CBF8001087
:10093000A069C8B33D49091D0968C1F381010229B5
:100940004AD00228504607D0C8F8600000E03CE0DA
:10095000FFF768FD04463BE04746C8F86000FFF734
:1009600061FD064605E000BFFFF75CFD801B022825
:100970002BD828688001F7D4D4E907010843A16A7D
:100980002E4A490802EB0141626A41EA821108439A
:1009900094F82C1040EA0161C9F800100120386673
:1009A000FFF740FD044606E03EE000BFFFF73AFDDA
:1009B000001B022809D828688001F7D534E000BF61
:1009C000FFF730FD001B022802D90320BDE8F88F95
:1009D00028688001F4D427E00128F7D0D9F8000076
:1009E000E26900F4800191421CD1226A00F03F01CB
:1009F000914217D147F6C071626A0140B1EB821F84
:100A000010D1A26A4FF0FF3300F4403103EB5202E1
:100A1000B1EB024F06D194F82C1000F07060B0EBEF
:100A2000016F01D00120D1E70020CFE70438024058
:100A300000004742800E4742007000400000FFFF68
:100A400010B5401EB0F1807F01D3012010BD4FF0E2
:100A5000E02460610F21601700F061F80020A061C0
:100A600007202061002010BDFEE7FEE7FEE770478B
:100A70007047FFF7DDBC000010B592B0302168462A
:100A8000FFF769FC14210CA8FFF765FC1D480168FD
:100A900041F080510160006800F0805011901A48C8
:100AA000016841F4804101600068022400F4804044
:100AB000119001200090000401908001CDE90640D2
:100AC0000C2008906420CDE9090404200B906846AE
:100AD000FFF700FE08B172B6FEE70F20CDE90C0467
:100AE00080200E904FF4A0500F904FF48050109043
:100AF00001210CA8FFF728FD002801D072B6FEE7FF
:100B000012B010BD40380240007000400248016839
:100B100041F470010160704788ED00E0FEE70907CD
:100B2000090E002804DB00F1E02080F80014704773
:100B300000F00F0000F1E02080F8141D7047000065
:100B400008B5FFF77DFCFFF797FF0848016841F003
:100B500080010160006800F080000090FFF78EFDCA
:100B6000034C2060FFF790FD6060FEE730380240E4
:100B7000000000204FF04070E1EE100A70470000C6
:100B8000000000000000010203040607080900003D
:100B9000B00B00080000002018000000C40100088D
:100BA000C80B00081800002060060000E0010008E3
:100BB0000000000000000000010000001000000024
:080BC000000000000024F40015
:040000050800018965
:00000001FF
