:020000040800F2
:100000000007002029020008231700086F150008C8
:10001000211700081F040008831B000800000000CF
:10002000000000000000000000000000271700088A
:100030002104000800000000251700082917000807
:10004000430200084302000843020008430200087C
:10005000430200084302000843020008430200086C
:10006000430200084302000843020008430200085C
:10007000430200084302000843020008430200084C
:10008000430200084302000843020008430200083C
:10009000430200084302000843020008430200082C
:1000A000430200084302000843020008430200081C
:1000B000B917000843020008430200084302000881
:1000C00043020008430200084302000843020008FC
:1000D00043020008430200084302000843020008EC
:1000E00043020008430200084302000843020008DC
:1000F00043020008430200084302000843020008CC
:100100004302000843020008D91700084302000810
:1001100043020008430200084302000843020008AB
:10012000430200084302000843020008430200089B
:10013000430200084302000843020008430200088B
:10014000430200084302000843020008430200087B
:10015000430200084302000843020008430200086B
:10016000430200084302000843020008430200085B
:100170004302000843020008430200080000000098
:10018000430200084302000800F002F800F03CF8C7
:100190000AA090E8000C82448344AAF10107DA45E2
:1001A00001D100F031F8AFF2090EBAE80F0013F0F8
:1001B000010F18BFFB1A43F001031847381A00005B
:1001C000581A0000103A24BF78C878C1FAD85207EC
:1001D00024BF30C830C144BF04680C6070470000C1
:1001E0000023002400250026103A28BF78C1FBD840
:1001F000520728BF30C148BF0B6070471FB501F0E0
:10020000EBFC1FBD10B510BD00F0CFF81146FFF795
:10021000F5FF01F0C7FC00F0EDF803B4FFF7F2FFC3
:1002200003BC00F0F5F80000094880470948004782
:10023000FEE7FEE7FEE7FEE7FEE7FEE7FEE7FEE796
:10024000FEE7FEE704480549054A064B70470000F3
:10025000A9170008890100080001002000070020FC
:10026000000300200003002053EA020C00F0698024
:100270002DE9F04B4FF00006002B1FBFB3FA83F5BA
:1002800003FA05F424FA05F65E4012BF1643B2FAEB
:1002900082F502FA05F4C5F120051EBF22FA05FC1D
:1002A00044EA0C04203556EA044C4FEA144418BFC3
:1002B000641C4FF000084FF00009904271EB030CF2
:1002C00039D3002919BFB1FA81F701FA07F6B0FA5C
:1002D00080F700FA07F6C7F120071EBF20FA07FCD7
:1002E00046EA0C062037B6FBF4FCA7EB0507103FE7
:1002F00007F01F0BCBF120060CFA0BFB2CFA06F6CD
:1003000044BFB3460026202FA4BF5E464FF0000B2B
:100310005BEA060C08BF4FF0010B19EB0B09ABFBB6
:10032000027C48EB0608C01B06FB02CC0BFB03CC8F
:1003300071EB0C01C1E70B46024641464846BDE859
:10034000F08B13B54FF000004FF00001AFF30080C9
:10035000BDE81C4070474FF0000200B513469446BC
:100360009646203922BFA0E80C50A0E80C50B1F10D
:100370002001BFF4F7AF090728BFA0E80C5048BF21
:100380000CC05DF804EB890028BF40F8042B08BFBF
:10039000704748BF20F8022B11F0804F18BF00F8BB
:1003A000012B7047704770477047754600F02CF876
:1003B000AE4605006946534620F00700854618B052
:1003C00020B5FFF73FFFBDE820404FF000064FF09B
:1003D00000074FF000084FF0000B21F00701AC467A
:1003E000ACE8C009ACE8C009ACE8C009ACE8C00999
:1003F0008D46704710B50446AFF300802046BDE837
:100400001040FFF70ABF000000487047A00000201E
:1004100001491820ABBEFEE7260002007047FEE748
:10042000704700002DE9F84FDFF8BCA1002201253C
:1004300003264FF00F090AF1040BAAF1040E00BFC6
:100440000B6805FA02F42340A34270D10F7907F03C
:100450000307012F01D0022F16D187684FEA420807
:1004600006FA08FC27EA0C07D1F80CC00CFA08FCC5
:100470004CEA070CC0F808C04768A7430C79C4F3DE
:10048000001494403C4344600C79E443A4070AD030
:10049000C4684FEA420C06FA0CF7BC438F6807FAAF
:1004A0000CF72743C7600C7904F00304022C12D127
:1004B000D40800EB840CDCF820405707FF0E09FA43
:1004C00007F824EA0804D1F8108008FA07F848EA87
:1004D0000408CCF8208004684FEA420C06FA0CF7B6
:1004E000BC430F7907F0030707FA0CF727430760AF
:1004F0004C6814F4403F70D03C4C276847F4804768
:100500002760246822F0030704F480440094384CE8
:1005100007EB040CDCF8084897074FEA177809FA4C
:1005200008F7BC43334FB84202D1002724E054E01F
:10053000314FB84201D101271EE0304FB84201D1FE
:10054000022719E02E4FB84201D1032714E02D4FA6
:10055000B84201D104270FE02B4FB84201D1052743
:100560000AE02A4FB84201D1062705E0284FB842D9
:1005700001D1072700E0082707FA08F72743CCF83E
:100580000878DAF800405746D1F804C09C435FEA87
:10059000CC2C00D51C433C60DBF800405F46D1F812
:1005A00004C09C435FEA8C2C00D51C433C60DEF801
:1005B00000407746D1F804C09C435FEA8C3C00D5EC
:1005C0001C433C60084F083F3C68D1F804C09C4382
:1005D0005FEACC3C00D51C433C60521C102AFFF45F
:1005E0002FAFBDE8F88F0000083C014044380240BE
:1005F00000300140000002400004024000080240B8
:10060000000C02400010024000140240001802409A
:10061000001C0240426921EA02030A4043EA024107
:10062000816170470AB1816170470904FBE70000EE
:10063000014880687047000000000020024881687F
:100640000278114481607047000000200B4810B50B
:10065000016841F400710160016841F4806101604A
:10066000016841F480710160032000F06FF80F20F1
:1006700000F006F800F024F8002010BD003C024015
:1006800070B50D4D04464FF47A712878B1FBF0F047
:100690000A490968B1FBF0F000F0ECFA48B9102CF7
:1006A00007D200222146501E00F030F800206C6076
:1006B00070BD012070BD0000000000200C00002073
:1006C0000A4808B5016841F480410160006800F4FF
:1006D000804000900548001F016841F08051016092
:1006E000006800F08050009008BD000044380240CF
:1006F000002809DB00F01F02012191404009800021
:1007000000F1E020C0F8001170470000F0B40E4B7B
:100710001B680C46C3F30223C3F10705042D00D95F
:100720000425191D072901D2002300E0DB1E012644
:1007300006FA05F1491E214099409E40761E16405A
:100740003143F0BC01F01EBA0CED00E0064900F0A8
:10075000070208684FF6FF03184040EA0220034AE8
:1007600010430860704700000CED00E00000FA053F
:100770002DE9F0470E46050065D0DFF81481D8F862
:100780000000F7B200F00700B04207D288F800700E
:10079000D8F8000000F00700B04254D128683D4C62
:1007A000810712D5400703D5206840F4E05020604F
:1007B0002878000703D5206840F460402060206856
:1007C000A96820F0F000084320602878C0072DD0E9
:1007D000304968680839012812D0022813D003284C
:1007E00011D00968890700292DDA216821F0030159
:1007F00001432160FFF71CFF814641F2883A0EE079
:1008000009688903EFE709688901ECE7FFF710FF42
:10081000A0EB0901514502D90320BDE8F08720680B
:10082000696800F00C00B0EB810FEFD1D8F8001030
:10083000404601F00701B14207D90770006800F097
:100840000700B04201D00120E7E72878400705D52E
:100850002068E96820F4E050084320602878000709
:1008600006D52068296920F4604040EAC100206074
:1008700000F018F82168084AC1F30311515CC84020
:100880000649086006480068FFF7FAFE0020C4E742
:10089000003C024008380240E21B00080C00002027
:1008A00004000020154810B5006810F00C02144830
:1008B00013D01449042A0FD0082A0ED10F4C241F3C
:1008C0002268236802F03F025B0207D52068C0F36C
:1008D0008810A0FB010106E0084610BD2168C1F3A5
:1008E0008811A1FB00010023FFF7BEFC2168C1F3C2
:1008F0000141491C4900B0FBF1F010BD083802402D
:100900000024F40040787D012DE9F84F04006ED0FA
:100910002078DFF84C93C007A9F104054AD009F10B
:1009200004000168C1F38101012908D00068C0F307
:10093000810002280AD1D9F80000400206D52868B3
:10094000800337D560680028E1D033E06068B0F5F7
:10095000803F10D0B0F5A02F286810D020F4803050
:100960002860286820F4802028606068A8B1FFF71C
:100970005FFE06460DE0286840F48030F4E740F45E
:1009800080202860F7E700BFFFF752FE801B642835
:1009900073D828688003F7D50CE0FFF749FE0646B8
:1009A00005E000BFFFF744FE801B6428F0D82868EC
:1009B0008003F7D42078DFF8AC8280074FF0000A7C
:1009C0003ED5A748001D016811F00C0F08D0006843
:1009D000C0F3810002280BD1D9F80000400207D4EF
:1009E0002868800716D5E068012800D112E033E1BD
:1009F000E068B8B10120C8F80000FFF719FE06460C
:100A000005E000BFFFF714FE801B0228C0D828684D
:100A10008007F7D52868216920F0F80040EAC10076
:100A200028600DE0C8F800A0FFF702FE064604E0CB
:100A3000FFF7FEFD801B02281FD828688007F7D427
:100A40002078000722D5864F87486169703771B1D9
:100A500001210160FFF7ECFD064604E0FFF7E8FD29
:100A6000801B022809D838688007F7D50EE0C0F847
:100A700000A0FFF7DDFD064605E082E0FFF7D8FDA8
:100A8000801B02287DD838688007F7D4207840077B
:100A900068D5DFF8CCB100270BF13C0BDBF8000088
:100AA000C0000BD4DBF8001041F08051CBF80010EF
:100AB000DBF80000012700F0805000906B4E30689A
:100AC000C00510D4306840F480703060FFF7B0FD8E
:100AD000009005E0FFF7ACFD0099401A022850D8BD
:100AE0003068C005F6D55E4EA0686C3601280FD080
:100AF0000528306810D020F001003060306820F008
:100B000004003060A068B8B1FFF792FD00900FE0DC
:100B1000306840F00100F4E740F004003060F7E78F
:100B2000FFF786FD0099411A41F28830814266D86C
:100B300030688007F4D50EE0FFF77AFD009007E0FB
:100B4000FFF776FD0099411A41F28830814256D86C
:100B500030688007F4D42FB1DBF8001021F0805109
:100B6000CBF80010A069C8B33D49091D0968C1F35D
:100B7000810102294AD00228504607D0C8F86000F7
:100B800000E03CE0FFF754FD04463BE04746C8F870
:100B90006000FFF74DFD064605E000BFFFF748FD8A
:100BA000801B02282BD828688001F7D4D4E90701DC
:100BB0000843A16A2E4A490802EB0141626A41EAF0
:100BC0008211084394F82C1040EA0161C9F8001022
:100BD00001203866FFF72CFD044606E03EE000BF2A
:100BE000FFF726FD001B022809D828688001F7D5E9
:100BF00034E000BFFFF71CFD001B022802D90320D0
:100C0000BDE8F88F28688001F4D427E00128F7D0E8
:100C1000D9F80000E26900F4800191421CD1226AF7
:100C200000F03F01914217D147F6C071626A01405E
:100C3000B1EB821F10D1A26A4FF0FF3300F44031B4
:100C400003EB5202B1EB024F06D194F82C1000F0E6
:100C50007060B0EB016F01D00120D1E70020CFE739
:100C60000438024000004742800E474200700040B6
:100C70000000FFFF10B5401EB0F1807F01D30120BE
:100C800010BD4FF0E02460610F21601700F07AFF83
:100C90000020A06107202061002010BD7047704730
:100CA00070B590F83C20012A32D0012480F83C40F5
:100CB000022280F83D2003685A689D6822F0700681
:100CC0000A6832435A60134B02689A4214D0B2F158
:100CD000804F11D0104B9A420ED0104B9A420BD03D
:100CE0000F4B9A4208D00F4B9A4205D00E4B9A42B6
:100CF00002D00E4B9A4204D1496825F08003194373
:100D0000916080F83D40002180F83C10084670BD9D
:100D1000022070BD000001400004004000080040B7
:100D2000000C004000040140004001400018004059
:100D300010B5040003D094F83D0010B107E0012085
:100D400010BD002084F83C00204600F01FF802206F
:100D500084F83D00211D206800F04EFD012084F83C
:100D6000460084F83E0084F83F0084F8400084F890
:100D7000410084F8420084F8430084F8440084F879
:100D8000450084F83D00002010BD000010B586B07D
:100D9000044614216846FFF7DEFA226800211F4846
:100DA000B2F1804F14D01E498A420FD1016841F040
:100DB000080101600068002200F00800059011465B
:100DC0003220FFF7A3FC3220FFF792FC06B010BDE3
:100DD000026842F001020260006800F00100059024
:100DE0000E481038026842F001020260006800F00C
:100DF00001000590202000900220CDE90101012092
:100E0000CDE9031069460748FFF70CFB00221146A5
:100E10001C20FFF77BFC1C20D6E700004038024076
:100E2000000C00400000024090F83D10012901D064
:100E300001207047022180F83D100168CA6842F025
:100E40000102CA6000681149884214D0B0F1804F95
:100E500011D00F4988420ED00E4988420BD00E495E
:100E6000884208D00D49884205D00D49884202D0F9
:100E70000C49884204D1816801F00701062903D09A
:100E8000016841F00101016000207047000001404D
:100E90000004004000080040000C00400004014035
:100EA000004001400018004070B5044690F83C0036
:100EB0000025012817D0012684F83C60022084F820
:100EC0003D002068826822F0770222F47F4282602F
:100ED0000868502838D00DDC20284FD005DC90B3AE
:100EE000102811D14AE0022070BD302846D0402899
:100EF0000AD13BE060282FD070280DD0B0F5805F7C
:100F000003D0B0F5005F12D0012584F83D600020C9
:100F100084F83C00284670BDCB68D1E901212068E7
:100F200000F0DBFC2068816841F0770109E0CB68C4
:100F3000D1E90121206800F0D0FC2068816841F4EB
:100F400080418160E1E719E0CA684968206800F0E3
:100F500099FD5021206806E0CA684968206800F0C1
:100F6000E3FD6021206800F0C2FCCEE7CA68496852
:100F7000206800F087FD40212068F4E722680146E0
:100F80001046F0E770472DE9F041054690F83C0027
:100F900000260C46012810D0012085F83C0072B1D3
:100FA000042A1CD0082A2CD00C2A50D0012600205C
:100FB00085F83C003046BDE8F0810220FBE7D4E92B
:100FC0000012E368286800F06FFD2868816921F04D
:100FD0000C01816128688169A26811430FE0D4E99E
:100FE0000012E368286800F0B1FD2868816921F4E7
:100FF0004061816128688169A26841EA02218161BA
:10100000D5E72868D4E9002C277B016A21F4807198
:101010000162C169036A21F0030141EA0C0121F078
:10102000F00C39074FF420674CEA116123F4206378
:1010300007EA02221A43C16102622868C16921F0ED
:101040000C01C1612868C169A268114328E02868C1
:10105000D4E90027E168036A23F480530362D0F8DF
:101060001CC0036A2CF4407C4CEA07274FF6FF7C37
:1010700027F470470CEA013139434FF4204723F439
:10108000204307EA02321A43C16102622868C1693B
:1010900021F44061C1612868C169A26841EA022166
:1010A000C16184E710B5040003D094F83D0010B18D
:1010B00007E0012010BD002084F83C00204600F02D
:1010C0001EF8022084F83D00211D206800F094FBEA
:1010D000012084F8460084F83E0084F83F0084F83C
:1010E000400084F8410084F8420084F8430084F80A
:1010F000440084F8450084F83D00002010BD70478E
:1011000030B50446002551B104290DD0082910D06E
:1011100094F8410094F84520012811D10EE094F88C
:101120003E0094F84220F7E794F83F0094F84320FB
:10113000F2E794F8400094F84420EDE7012A01D04A
:10114000012030BD022059B1042912D0082919D03C
:1011500084F8410084F845000C2944D0012540E082
:1011600084F83E0084F842002068C26842F002021F
:1011700010E084F83F0084F843002068C26842F021
:10118000040207E084F8400084F844002068C26844
:1011900042F00802C2600122206800F091FB14496D
:1011A0002068884214D0B0F1804F11D01149884294
:1011B0000ED0114988420BD01049884208D01049FE
:1011C000884205D00F49884202D00F49884204D195
:1011D000816801F00701062903D0016841F001018F
:1011E0000160284630BD2068C26842F01002D1E795
:1011F000000001400004004000080040000C0040D6
:1012000000040140004001400018004070B5044651
:10121000006801694FF00005C943890715D4C1680A
:10122000C943890711D4E91E016101202077206894
:1012300080698007204602D0FFF7A4FE04E000F09A
:10124000EAF8204600F090F9257720680169C94343
:10125000490717D4C168C943490713D46FF0040183
:101260000161022020772068806910F4407F2046C9
:1012700002D0FFF787FE04E000F0CDF8204600F032
:1012800073F9257720680169C943090716D4C16835
:10129000C943090712D46FF00801016104202077C7
:1012A0002068C0698007204602D0FFF76BFE04E08B
:1012B00000F0B1F8204600F057F925772068016961
:1012C000C943C90617D4C168C943C90613D46FF00E
:1012D00010010161082020772068C06910F4407F68
:1012E000204602D0FFF74EFE04E000F094F82046BE
:1012F00000F03AF9257720680169C943C90708D188
:10130000C168C943C90704D1891E0161204600F0A4
:101310002CF920680169C943090609D4C168C94389
:10132000090605D46FF0800101612046FFF7B6FC85
:1013300020680169C943490609D4C168C9434906FF
:1013400005D46FF040010161204600F00FF92068DC
:101350000169C94389060BD4C168C943890607D40A
:101360006FF0200101612046BDE87040FFF797BC97
:1013700070BD000010B586B0044614216846FEF723
:10138000EAFF0D492068884214D10C480021026808
:1013900042F001020260006800F0010005900120A7
:1013A00000900220CDE90101CDE90310694604480F
:1013B000FFF738F806B010BD000C0040303802408E
:1013C0000000024070B5044690F83C00002501285A
:1013D0000FD0012084F83C006AB1042A0FD0082AFB
:1013E00011D00C2A13D00125002084F83C00284697
:1013F00070BD022070BD206800F082FAF4E720681A
:1014000000F0AEFAF0E7206800F0E0FAECE72068C0
:1014100000F010FBE8E7704710B5040003D094F823
:101420003D0010B107E0012010BD002084F83C0011
:10143000204600F01EF8022084F83D00211D20689F
:1014400000F0DAF9012084F8460084F83E0084F8C0
:101450003F0084F8400084F8410084F8420084F89A
:10146000430084F8440084F8450084F83D000020DF
:1014700010BD704730B500250446022249B1042949
:1014800012D008294CD094F84100012853D00120F3
:1014900030BD94F83E000128F9D184F83E20206840
:1014A000C26842F0020209E094F83F000128EED140
:1014B00084F83F202068C26842F00402C260012222
:1014C000206800F0FDF921492068214A884201D0B6
:1014D000904203D1436C43F4004343642068884244
:1014E00013D0B0F1804F10D01A4988420DD01A495C
:1014F00088420AD01949884207D0904205D018493D
:10150000884202D01749884204D1816801F007015E
:10151000062903D0016841F001010160284630BD71
:1015200094F840000128B2D184F840202068C268B5
:1015300042F00802C2E784F841200C2901D00125BD
:10154000ECE72068C26842F01002B7E700000140F3
:10155000000401400004004000080040000C00406E
:101560000040014000180040704770477047FEE798
:1015700070B586B014216846FEF7EDFE17480024CA
:10158000016841F001010160016801F0010105916C
:10159000016841F0020101600068114E00F0020094
:1015A000059022464FF440713046FFF73BF8B015E6
:1015B00000900125CDE90154694630460394FEF7B9
:1015C00031FF6802CDE900050220CDE90204694639
:1015D0003046FEF727FF06B070BD000030380240ED
:1015E0000004024010B58AB00024224804940594F7
:1015F00006940794089409940094019402944FF07F
:1016000080410394016043F67F61C0E90114611ECB
:10161000C0E903148461FFF78BFB08B172B6FEE7E3
:101620004FF48050049004A91248FFF73DFC08B124
:1016300072B6FEE70F48FFF735FD08B172B6FEE758
:10164000089408A90B480994FFF72AFB08B172B661
:10165000FEE70A2000900120CDE90104002269463E
:1016600004480394FFF78FFC002801D072B6FEE710
:101670000AB010BD1000002030B58DB000240794D2
:10168000089409940A940B941C2168460C94FEF764
:1016900062FE224D2048286043F67F60C5E90104C0
:1016A0004011C5E903042846AC61FFF741FB08B1CE
:1016B00072B6FEE74FF48050079007A91748FFF76E
:1016C000F3FB08B172B6FEE71448FFF7A5FE08B1B8
:1016D00072B6FEE70B940BA910480C94FFF7E0FAE2
:1016E00008B172B6FEE7302000906420CDE9010415
:1016F0000022694609480494FFF764FE08B172B6F7
:10170000FEE72868816941F0080181610348FFF71D
:1017100031FE0DB030BD0000000C0040580000202C
:10172000FEE7FEE770477047FEF788BF10B592B03E
:1017300030216846FEF70FFE14210CA8FEF70BFEC1
:1017400017480024016841F080510160006800F0F2
:10175000805011901348016841F480410160006895
:10176000069400F480401190022000900120039024
:10177000102004906846FFF7C7F808B172B6FEE77C
:101780000F20CDE90C040E940F9400210CA81094A6
:10179000FEF7EEFF002801D072B6FEE712B010BDD2
:1017A00040380240007000400248016841F4700176
:1017B0000160704788ED00E010B50548FFF726FD91
:1017C000BDE810404FF400710248FEF723BF00004F
:1017D000100000200004024010B50548FFF716FD78
:1017E000BDE810404FF480710248FEF713BF0000BF
:1017F0005800002000040240F0B50268254C264D38
:10180000264E274F274B4FF0804CA04209D0604511
:1018100007D0A84205D0B04203D0B84201D09842C8
:1018200004D122F0700E4A6842EA0E02A0421BD098
:10183000604519D0A84217D0B04215D0B84213D095
:10184000984211D0184DA8420ED0184DA8420BD086
:10185000174DA84208D0174DA84205D0164DA842F2
:1018600002D0164DA84203D122F44075CA682A431B
:101870004D6922F080022A4302608A68C2620A68C7
:101880008262A04201D0984201D10969016301211D
:101890004161F0BD0000014000040040000800402C
:1018A000000C0040000401400040014000440140A1
:1018B0000048014000180040001C0040002000408B
:1018C00010B501F01F030121046A99408C430462A2
:1018D000016A9A401143016210BD10B5846842EA62
:1018E000032224F47F440A432243826010BD8268AD
:1018F00022F070020A4342F0070181607047000045
:10190000F0B5026A22F001020262036A4268846949
:10191000124E24F073050C682C4323F002058B68EB
:101920002B430D4DA84201D0B04205D123F008074A
:10193000CB683B4323F00403A84201D0B04205D159
:101940004D6922F4407215438A692A4342608461DA
:10195000496841630362F0BD00000140000401409A
:10196000F0B5026A22F010020262026A43688469DA
:101970000D6824F4E64444EA05248D6822F0200230
:1019800042EA05120F4D104EA84201D0B04206D1D6
:10199000CF6822F0800242EA071222F04002A842F9
:1019A00001D0B04207D14D6923F4406343EA850377
:1019B0008D6943EA850343608461496881630262FB
:1019C000F0BD00000000014000040140F0B5026AD3
:1019D00022F480720262026A4368C46922F40072CF
:1019E00024F073050C68124E2C438D6842EA0522E0
:1019F0000E4DA84201D0B04206D1CF6822F4006259
:101A000042EA072222F48062A84201D0B04207D104
:101A10004D6923F4405343EA05138D6943EA0513E6
:101A20004360C4614968C1630262F0BD00000140C7
:101A30000004014030B5026A22F480520262046A56
:101A40004268C3690D6823F4E64343EA05238D68C1
:101A500024F4005444EA0534084DA84202D0084D4D
:101A6000A84204D14D6922F4804242EA85124260C4
:101A7000C36149680164046230BD00000000014098
:101A80000004014010B5036A046A24F001040462F2
:101A9000846924F0F00444EA021423F00A020A43A1
:101AA0008461026210BD000070B5046A24F0010474
:101AB00004628469056A154EB04214D0B0F1804FBB
:101AC00011D0134EB0420ED0124EB0420BD0124E77
:101AD000B04208D0114EB04205D0114EB04202D0F3
:101AE000104EB04203D124F00304144301E044F04B
:101AF00001041A0724F0F00444EA126225F00A03F4
:101B000001F00A0119438261016270BD00000140C9
:101B10000004004000080040000C004000040140A8
:101B2000004001400018004010B5036A23F0100384
:101B300003628369046A23F4704343EA023224F0A7
:101B4000A00343EA01118261016210BD30B5046A4D
:101B500024F0100404628469056A24F4407444EAA1
:101B6000022222F470444FF6FF7202EA033222434B
:101B7000A02425F0A00304EA011119438261016247
:101B800030BDFEE70907090E002804DB00F1E02064
:101B900080F80014704700F00F0000F1E02080F89A
:101BA000141D7047FEF752FDFFF7C0FDFFF7E0FC84
:101BB000FFF718FDFFF760FD00210648FFF7A0FAC8
:101BC000044800214830FFF755FC02484830FFF731
:101BD0002BF9FEE7100000204FF04070E1EE100AF4
:101BE0007047000000000000000001020304060727
:101BF00008090000141C000800000020100000006C
:101C0000C4010008241C000810000020F006000099
:101C1000E0010008010000001000000000000000CA
:041C20000024F400A8
:040000050800018965
:00000001FF
